{
  "contractName": "CoinFlip",
  "abi": [
    {
      "inputs": [],
      "name": "flip",
      "outputs": [],
      "stateMutability": "payable",
      "type": "function"
    },
    {
      "inputs": [
        {
          "internalType": "bool",
          "name": "_guess",
          "type": "bool"
        }
      ],
      "name": "placeBet",
      "outputs": [],
      "stateMutability": "payable",
      "type": "function"
    }
  ],
  "bytecode": "0x608060405234801561000f575f80fd5b50335f806101000a81548173ffffffffffffffffffffffffffffffffffffffff021916908373ffffffffffffffffffffffffffffffffffffffff1602179055506104db8061005c5f395ff3fe60806040526004361061002c575f3560e01c80631d263f67146100375780638da5cb5b1461006757610033565b3661003357005b5f80fd5b610051600480360381019061004c9190610252565b610091565b60405161005e919061028c565b60405180910390f35b348015610072575f80fd5b5061007b6101f6565b60405161008891906102e4565b60405180910390f35b5f8034116100d4576040517f08c379a00000000000000000000000000000000000000000000000000000000081526004016100cb9061037d565b60405180910390fd5b5f806002426100e391906103d1565b1490508015158315150361019c573373ffffffffffffffffffffffffffffffffffffffff166108fc600234610118919061042e565b90811502906040515f60405180830381858888f19350505050158015610140573d5f803e3d5ffd5b503373ffffffffffffffffffffffffffffffffffffffff167f691f0f9406590b3950e5ffbb911bb56e95a245a41776c29c248eb448420d5e0634600160405161018a92919061047e565b60405180910390a260019150506101f1565b3373ffffffffffffffffffffffffffffffffffffffff167f691f0f9406590b3950e5ffbb911bb56e95a245a41776c29c248eb448420d5e06345f6040516101e492919061047e565b60405180910390a25f9150505b919050565b5f8054906101000a900473ffffffffffffffffffffffffffffffffffffffff1681565b5f80fd5b5f8115159050919050565b6102318161021d565b811461023b575f80fd5b50565b5f8135905061024c81610228565b92915050565b5f6020828403121561026757610266610219565b5b5f6102748482850161023e565b91505092915050565b6102868161021d565b82525050565b5f60208201905061029f5f83018461027d565b92915050565b5f73ffffffffffffffffffffffffffffffffffffffff82169050919050565b5f6102ce826102a5565b9050919050565b6102de816102c4565b82525050565b5f6020820190506102f75f8301846102d5565b92915050565b5f82825260208201905092915050565b7f42657420616d6f756e74206d7573742062652067726561746572207468616e205f8201527f3000000000000000000000000000000000000000000000000000000000000000602082015250565b5f6103676021836102fd565b91506103728261030d565b604082019050919050565b5f6020820190508181035f8301526103948161035b565b9050919050565b5f819050919050565b7f4e487b71000000000000000000000000000000000000000000000000000000005f52601260045260245ffd5b5f6103db8261039b565b91506103e68361039b565b9250826103f6576103f56103a4565b5b828206905092915050565b7f4e487b71000000000000000000000000000000000000000000000000000000005f52601160045260245ffd5b5f6104388261039b565b91506104438361039b565b92508282026104518161039b565b9150828204841483151761046857610467610401565b5b5092915050565b6104788161039b565b82525050565b5f6040820190506104915f83018561046f565b61049e602083018461027d565b939250505056fea264697066735822122018d5fc517d07f281b63e9b0f74755e4775d979023a5b9bf44dc21d13dfe44dc964736f6c63430008150033",
  "immutableReferences": {},
  "source": "// SPDX-License-Identifier: MIT\r\npragma solidity ^0.8.0;\r\n\r\ncontract CoinFlip {\r\n    address public owner;\r\n\r\n    event FlipOutcome(address indexed player, uint256 betAmount, bool outcome);\r\n\r\n    constructor() {\r\n        owner = msg.sender;\r\n    }\r\n\r\n    function flip(bool _guess) public payable returns (bool) {\r\n        require(msg.value > 0, \"Bet amount must be greater than 0\");\r\n\r\n        bool outcome = (block.timestamp % 2 == 0); // Simple randomization using block timestamp\r\n\r\n        if (_guess == outcome) {\r\n            // User guessed correctly, send them double their bet\r\n            payable(msg.sender).transfer(msg.value * 2);\r\n            emit FlipOutcome(msg.sender, msg.value, true);\r\n            return true;\r\n        } else {\r\n            // User guessed incorrectly, house keeps the bet\r\n            emit FlipOutcome(msg.sender, msg.value, false);\r\n            return false;\r\n        }\r\n    }\r\n\r\n    // Fallback function to accept deposits\r\n    receive() external payable {}\r\n}\r\n",
  "sourcePath": "C:\\Users\\Dream\\CoinFlipGame\\contracts\\CoinFlip.sol",
  "compiler": {
    "name": "solc",
    "version": "0.8.21+commit.d9974bed.Emscripten.clang"
  },
  "schemaVersion": "3.4.16",
  "updatedAt": "2024-08-25T04:52:08.201Z",
  "devdoc": {
    "kind": "dev",
    "methods": {},
    "version": 1
  },
  "userdoc": {
    "kind": "user",
    "methods": {},
    "version": 1
  }
}